S00C000062736F72742E733139BE
S20500000013E7
S20500000100F9
S20500000200F8
S20500000300F7
S20500000413E3
S20500000500F5
S20500000600F4
S20500000700F3
S20500000813DF
S20500000900F1
S20500000A00F0
S20500000B00EF
S20500000C13DB
S20500000D00ED
S20500000E00EC
S20500000F00EB
S20500001013D7
S20500001100E9
S20500001200E8
S20500001300E7
S20500001413D3
S20500001500E5
S20500001600E4
S20500001700E3
S20500001813CF
S20500001900E1
S20500001A00E0
S20500001B00DF
S20500001C13CB
S20500001D00DD
S20500001E00DC
S20500001F00DB
S20500002013C7
S20500002100D9
S20500002200D8
S20500002300D7
S20500002413C3
S20500002500D5
S20500002600D4
S20500002700D3
S20500002813BF
S20500002900D1
S20500002A00D0
S20500002B00CF
S20500002C13BB
S20500002D00CD
S20500002E00CC
S20500002F00CB
S20500003013B7
S20500003100C9
S20500003200C8
S20500003300C7
S20500003413B3
S20500003500C5
S20500003600C4
S20500003700C3
S20500003813AF
S20500003900C1
S20500003A00C0
S20500003B00BF
S20500003C13AB
S20500003D00BD
S20500003E00BC
S20500003F00BB
S20500004013A7
S20500004100B9
S20500004200B8
S20500004300B7
S20500004413A3
S20500004500B5
S20500004600B4
S20500004700B3
S205000048139F
S20500004900B1
S20500004A00B0
S20500004B00AF
S20500004C139B
S20500004D00AD
S20500004E00AC
S20500004F00AB
S2050000501397
S20500005100A9
S20500005200A8
S20500005300A7
S2050000541393
S20500005500A5
S20500005600A4
S20500005700A3
S205000058138F
S20500005900A1
S20500005A00A0
S20500005B009F
S20500005C6F2F
S20500005D009D
S20500005EC0DC
S20500005F0F8C
S2050000606F2B
S2050000610099
S2050000620098
S2050000631186
S2050000646F27
S2050000650095
S2050000664054
S2050000671281
S2050000686F23
S2050000690091
S20500006A8010
S20500006B137C
S20500006C6F1F
S20500006D008D
S20500006EC0CC
S20500006F1477
S2050000706F1B
S2050000710089
S2050000728008
S2050000731770
S2050000746F17
S2050000750085
S205000076C0C4
S205000077156E
S2050000786F13
S2050000790081
S20500007A0080
S20500007B1A65
S20500007C6F0F
S20500007D007D
S20500007E403C
S20500007F1863
S2050000806F0B
S2050000810079
S205000082C0B8
S2050000830077
S2050000846F07
S2050000850075
S205000086C0B4
S2050000871A59
S2050000886F03
S2050000890071
S20500008A80F0
S20500008B1A55
S20500008C93DB
S20500008D006D
S20500008E006C
S20500008F006B
S2050000901357
S20500009181E8
S2050000920068
S2050000930067
S20500009493D3
S20500009581E4
S2050000960064
S2050000970063
S205000098134F
S20500009982DF
S20500009A0060
S20500009B005F
S20500009C93CB
S20500009D82DB
S20500009E005C
S20500009F005B
S2050000A01347
S2050000A183D6
S2050000A20058
S2050000A30057
S2050000A493C3
S2050000A583D2
S2050000A60054
S2050000A70053
S2050000A8133F
S2050000A984CD
S2050000AA0050
S2050000AB004F
S2050000AC93BB
S2050000AD84C9
S2050000AE004C
S2050000AF004B
S2050000B01337
S2050000B185C4
S2050000B20048
S2050000B30047
S2050000B493B3
S2050000B585C0
S2050000B60044
S2050000B70043
S2050000B8132F
S2050000B986BB
S2050000BA0040
S2050000BB003F
S2050000BC93AB
S2050000BD86B7
S2050000BE003C
S2050000BF003B
S2050000C01327
S2050000C187B2
S2050000C20038
S2050000C30037
S2050000C493A3
S2050000C587AE
S2050000C60034
S2050000C70033
S2050000C8131F
S2050000C988A9
S2050000CA0030
S2050000CB002F
S2050000CC939B
S2050000CD88A5
S2050000CE002C
S2050000CF002B
S2050000D01317
S2050000D189A0
S2050000D20028
S2050000D30027
S2050000D49393
S2050000D5899C
S2050000D60024
S2050000D70023
S2050000D8130F
S2050000D98A97
S2050000DA0020
S2050000DB001F
S2050000DC938B
S2050000DD8A93
S2050000DE001C
S2050000DF001B
S2050000E01307
S2050000E18B8E
S2050000E20018
S2050000E30017
S2050000E49383
S2050000E58B8A
S2050000E60014
S2050000E70013
S2050000E813FF
S2050000E98C85
S2050000EA0010
S2050000EB000F
S2050000EC937B
S2050000ED8C81
S2050000EE000C
S2050000EF000B
S2050000F013F7
S2050000F18D7C
S2050000F20008
S2050000F30007
S2050000F49373
S2050000F58D78
S2050000F60004
S2050000F70003
S2050000F813EF
S2050000F98E73
S2050000FA0000
S2050000FB00FF
S2050000FC936B
S2050000FD8E6F
S2050000FE00FC
S2050000FF00FB
S20500010013E6
S2050001018F69
S20500010200F7
S20500010300F6
S2050001049362
S2050001058F65
S20500010600F3
S20500010700F2
S20500010817DA
S205000109E10F
S20500010A01EE
S20500010B00EE
S20500010C13DA
S20500010D01EB
S20500010E816A
S20500010FEFFB
S20500011017D2
S2050001110DDB
S20500011210D7
S20500011300E6
S20500011413D2
S2050001150DD7
S205000116CD16
S2050001170BD7
S205000118974A
S2050001190DD3
S20500011A10CF
S20500011B00DE
S20500011C934A
S20500011D8D4F
S20500011E4D8E
S20500011F0BCF
S2050001206376
S2050001215880
S205000122BD1A
S20500012301D5
S20500012423B2
S20500012520B4
S2050001260DC6
S20500012700D2
S20500012813BE
S2050001290DC3
S20500012A4D82
S20500012B00CE
S20500012CE3EA
S20500012DDCF0
S20500012EAD1E
S20500012FFFCB
S205000130EFDA
S20500013110B8
S2050001328047
S20500013310B6
S20500013413B2
S20500013505BF
S20500013600C3
S20500013700C2
S205000138932E
S20500013905BB
S20500013A10AF
S20500013B00BE
S20500013CEFCE
S20500013D00BC
S20500013ED0EB
S20500013F6753
S20500014013A6
S20500014105B3
S20500014200B7
S20500014300B6
S2050001449322
S20500014505AF
S20500014600B3
S20500014700B2
S205000148EFC2
S20500014900B0
S20500014AC0EF
S20500014B208E
S20500014CEFBE
S20500014D109C
S20500014EC0EB
S20500014F0B9F
S205000150EFBA
S20500015100A8
S2050001529017
S205000153772F
S205000154EFB6
S20500015500A4
S2050001569013
S2050001577A28
S205000158138E
S205000159019F
S20500015A019E
S20500015BFAA4
S20500015C237A
S20500015D2E6E
S20500015E118A
S20500015F0496
S205000160EFAA
S2050001610098
S2050001628017
S2050001630E88
S20500016497FE
S2050001650094
S2050001660093
S2050001670092
S20500016893FE
S2050001698010
S20500016AC0CF
S20500016B1579
S20500016C6F1E
S20500016D008C
S20500016ED0BB
S20500016F5B2F
S2050001701376
S2050001710187
S2050001720186
S205000173FA8C
S2050001742362
S2050001752E56
S2050001761172
S205000177047E
S205000178EF92
S2050001790080
S20500017A007F
S20500017B0D71
S20500017C97E6
S20500017D007C
S20500017E007B
S20500017F007A
S20500018093E6
S20500018180F8
S2050001824037
S2050001831462
S2050001846F06
S2050001850074
S2050001865023
S2050001875B17
S205000188135E
S205000189016F
S20500018A016E
S20500018BFA74
S20500018C234A
S20500018D2E3E
S20500018E115A
S20500018F0466
S205000190EF7A
S2050001910068
S20500019280E7
S2050001930B5B
S20500019497CE
S2050001950064
S2050001960063
S2050001970062
S20500019893CE
S20500019980E0
S20500019AC09F
S20500019B124C
S20500019C6FEE
S20500019D005C
S20500019ED08B
S20500019F5A00
S2050001A01346
S2050001A10157
S2050001A20156
S2050001A3FA5C
S2050001A42332
S2050001A52E26
S2050001A61142
S2050001A7044E
S2050001A8EF62
S2050001A90050
S2050001AA004F
S2050001AB0A44
S2050001AC97B6
S2050001AD004C
S2050001AE004B
S2050001AF004A
S2050001B093B6
S2050001B180C8
S2050001B24007
S2050001B31135
S2050001B46FD6
S2050001B50044
S2050001B650F3
S2050001B75AE8
S2050001B8132E
S2050001B9013F
S2050001BA013E
S2050001BBFA44
S2050001BC231A
S2050001BD2E0E
S2050001BE112A
S2050001BF0436
S2050001C0EF4A
S2050001C10038
S2050001C280B7
S2050001C3082E
S2050001C4979E
S2050001C50034
S2050001C60033
S2050001C70032
S2050001C8939E
S2050001C980B0
S2050001CAC06F
S2050001CB0F1F
S2050001CC6FBE
S2050001CD002C
S2050001CED05B
S2050001CF59D1
S2050001D01316
S2050001D10127
S2050001D20126
S2050001D3FA2C
S2050001D42302
S2050001D52EF6
S2050001D61112
S2050001D7041E
S2050001D8EF32
S2050001D90020
S2050001DA001F
S2050001DB0717
S2050001DC9786
S2050001DD001C
S2050001DE001B
S2050001DF001A
S2050001E09386
S2050001E18098
S2050001E240D7
S2050001E30E08
S2050001E46FA6
S2050001E50014
S2050001E650C3
S2050001E75AB8
S2050001E813FE
S2050001E9010F
S2050001EA010E
S2050001EBFA14
S2050001EC23EA
S2050001ED2EDE
S2050001EE11FA
S2050001EF0406
S2050001F0EF1A
S2050001F10008
S2050001F28087
S2050001F30501
S2050001F4976E
S2050001F50004
S2050001F60003
S2050001F70002
S2050001F8936E
S2050001F98080
S2050001FAC03F
S2050001FB0CF2
S2050001FC6F8E
S2050001FD00FC
S2050001FED02B
S2050001FF57A3
S20500020013E5
S20500020101F6
S20500020201F5
S205000203FAFB
S20500020423D1
S2050002052EC5
S20500020611E1
S20500020704ED
S205000208EF01
S20500020900EF
S20500020A00EE
S20500020B04E9
S20500020C9755
S20500020D00EB
S20500020E00EA
S20500020F00E9
S2050002109355
S2050002118067
S20500021240A6
S2050002130BDA
S2050002146F75
S20500021500E3
S2050002165092
S2050002175988
S20500021813CD
S20500021901DE
S20500021A01DD
S20500021BFAE3
S20500021C23B9
S20500021D2EAD
S20500021E11C9
S20500021F04D5
S205000220EFE9
S20500022100D7
S2050002228056
S20500022302D3
S205000224973D
S20500022500D3
S20500022600D2
S20500022700D1
S205000228933D
S205000229804F
S20500022AC00E
S20500022B09C4
S20500022C6F5D
S20500022D00CB
S20500022ED0FA
S20500022F5673
S20500023013B5
S20500023101C6
S20500023201C5
S205000233FACB
S20500023423A1
S2050002352E95
S20500023611B1
S20500023704BD
S205000238EFD1
S20500023900BF
S20500023A00BE
S20500023B01BC
S20500023C9725
S20500023D00BB
S20500023E00BA
S20500023F00B9
S2050002409325
S2050002418037
S2050002424076
S20500024308AD
S2050002446F45
S20500024500B3
S2050002464072
S2050002472988
S205000248238D
S205000249208F
S20500024A317D
S20500024B00AD
S20500024C2389
S20500024D2289
S20500024E4169
S20500024F00A9
S2050002502385
S2050002512483
S2050002525155
S20500025300A5
S2050002542381
S205000255267D
S2050002566141
S20500025700A1
S205000258237D
S2050002592877
S20500025A712D
S20500025B009D
S20500025C2379
S20500025D2A71
S20500025EA1F9
S20500025F0099
S2050002602375
S2050002612C6B
S205000262B1E5
S2050002630095
S2050002642371
S2050002652E65
S205000266C1D1
S2050002670091
S205000268236D
S205000269206F
S20500026AD1BD
S20500026B028B
S20500026C2369
S20500026D2269
S20500026EE1A9
S20500026F0287
S2050002702365
S2050002712463
S205000272F195
S2050002730283
S2050002742361
S205000275265D
S2050002760181
S205000277037E
S205000278235D
S2050002792857
S20500027A116D
S20500027B037A
S20500027C2359
S20500027D2A51
S20500027EC1B9
S20500027F0376
S2050002802355
S2050002812C4B
S205000282D1A5
S2050002830372
S2050002842351
S2050002852E45
S205000286E191
S205000287036E
S205000288234D
S205000289204F
S20500028AF17D
S20500028B0568
S20500028C73F9
S20500028D2E3D
S20500028E006A
S20500028F7BEE
S205000290F375
S2050002912E39
S2050002921056
S2050002937BEA
S20500029473F1
S2050002952F34
S2050002962042
S2050002977BE6
S205000298233D
S205000299223D
S20500029AC19D
S20500029B0558
S20500029C2339
S20500029D2437
S20500029ED189
S20500029F0554
S2050002A02335
S2050002A12631
S2050002A2E175
S2050002A30550
S2050002A473E1
S2050002A52E25
S2050002A64012
S2050002A77BD6
S2050002A8F35D
S2050002A92E21
S2050002AA50FE
S2050002AB7BD2
S2050002AC73D9
S2050002AD2F1C
S2050002AE60EA
S2050002AF7BCE
S2050002B02325
S2050002B1281F
S2050002B2C185
S2050002B30540
S2050002B42321
S2050002B52A19
S2050002B6D171
S2050002B7053C
S2050002B8231D
S2050002B92C13
S2050002BAE15D
S2050002BB0538
S2050002BC67D5
S2050002BD80BB
S2050002BE003A
S2050002BF0039
S2050002C00335
S2050002C12E09
S2050002C20135
S2050002C30530
S2050002C483B1
S2050002C52E05
S2050002C641F1
S2050002C7052C
S2050002C8032D
S2050002C92F00
S2050002CA81AD
S2050002CB0528
S2050002CC73B9
S2050002CD101B
S2050002CE4EDC
S2050002CF7BAE
S2050002D073B5
S2050002D19097
S2050002D25EC8
S2050002D37BAA
S2050002D473B1
S2050002D51013
S2050002D66FB3
S2050002D77BA6
S2050002D8031D
S2050002D92EF1
S2050002DA41DD
S2050002DB0419
S2050002DC8399
S2050002DD2EED
S2050002DE8199
S2050002DF0415
S2050002E00315
S2050002E12FE8
S2050002E2C155
S2050002E30411
S2050002E473A1
S2050002E51003
S2050002E60E04
S2050002E77B96
S2050002E8739D
S2050002E9907F
S2050002EA1EF0
S2050002EB7B92
S2050002EC7399
S2050002ED10FB
S2050002EE2FDB
S2050002EF7B8E
S2050002F08385
S2050002F121E6
S2050002F20105
S2050002F30005
S2050002F40301
S2050002F522E1
S2050002F641C1
S2050002F70001
S2050002F8837D
S2050002F922DD
S2050002FA817D
S2050002FB00FD
S2050002FC03F9
S2050002FD23D8
S2050002FEC139
S2050002FF00F9
S2050003008374
S20500030123D3
S20500030201F4
S20500030301F3
S20500030403F0
S20500030525CD
S20500030641B0
S20500030701EF
S205000308836C
S20500030925C9
S20500030A816C
S20500030B01EB
S20500030C03E8
S20500030D26C4
S20500030EC128
S20500030F01E7
S2050003108364
S20500031126C0
S20500031201E4
S20500031302E2
S20500031403E0
S20500031527BB
S20500031641A0
S20500031702DE
S205000318835C
S20500031927B7
S20500031A815C
S20500031B02DA
S20500031C03D8
S20500031D28B2
S20500031EC118
S20500031F02D6
S2050003208354
S20500032128AE
S20500032201D4
S20500032303D1
S20500032403D0
S2050003252EA4
S2050003264190
S20500032703CD
S205000328834C
S2050003292EA0
S20500032A814C
S20500032B03C9
S20500032C03C8
S20500032D2F9B
S20500032EC108
S20500032F03C5
S2050003308344
S2050003312F97
S20500033201C4
S20500033304C0
S2050003348340
S20500033520A2
S205000336C100
S20500033705BB
S20500033813AC
S20500033901BD
S20500033A01BC
S20500033B06B6
S20500033C6754
S20500033D803A
S20500033E00B9
S20500033F00B8
S2050003406750
S2050003418036
S20500034200B5
S20500034300B4
S20500034400B3
S20500034500B2
S20500034600B1
S20500034700B0
S20500034800AF
S20500034900AE
S20500034A00AD
S20500034B00AC
S20500034C00AB
S20500034D00AA
S20500034E00A9
S20500034F00A8
S20500035000A7
S20500035100A6
S20500035200A5
S20500035300A4
S2050003541390
S20500035501A1
S20500035601A0
S205000357FDA3
S205000358237C
S2050003592678
S20500035A811C
S20500035B029A
S20500035C1388
S20500035D0496
S20500035E0198
S20500035F0395
S2050003609304
S205000361078F
S2050003626035
S2050003630193
S2050003642370
S2050003652E64
S205000366F49D
S205000367FC94
S205000368236C
S2050003692668
S20500036A0489
S20500036BFE8E
S20500036C6F1C
S20500036D008A
S20500036EC0C9
S20500036F0C7C
S2050003702364
S2050003712462
S2050003720481
S205000373FE86
S2050003746F14
S2050003750082
S2050003760081
S2050003770A76
S2050003783748
S2050003792757
S20500037A007D
S20500037B007C
S20500037C83F8
S20500037D2753
S20500037E84F5
S20500037FFE7A
S20500038093E4
S20500038197DF
S205000382274E
S2050003830074
S205000384B3C0
S205000385076B
S205000386F77A
S2050003870070
S205000388036C
S205000389A7C7
S20500038A0766
S20500038B006C
S20500038CB7B4
S20500038D2644
S20500038E0069
S20500038F0068
S20500039083E4
S205000391273F
S20500039284E1
S205000393FE66
S20500039493D0
S20500039587DB
S205000396174A
S2050003970060
S20500039893CC
S20500039997C7
S20500039A2736
S20500039B005C
S20500039CB3A8
S20500039D87D3
S20500039EF663
S20500039F0058
S2050003A083D4
S2050003A1A7AF
S2050003A2074E
S2050003A30054
S2050003A463F0
S2050003A5F260
S2050003A6E76A
S2050003A7064A
S2050003A83718
S2050003A92727
S2050003AA004D
S2050003AB004C
S2050003AC83C8
S2050003AD2723
S2050003AE84C5
S2050003AFFE4A
S2050003B093B4
S2050003B197AF
S2050003B2271E
S2050003B30044
S2050003B4B390
S2050003B5073B
S2050003B6F74A
S2050003B70040
S2050003B883BC
S2050003B9A797
S2050003BA0736
S2050003BB003C
S2050003BC2318
S2050003BD2A10
S2050003BEF445
S2050003BFFC3C
S2050003C03700
S2050003C1270F
S2050003C20035
S2050003C30034
S2050003C483B0
S2050003C5270B
S2050003C684AD
S2050003C7FE32
S2050003C8939C
S2050003C987A7
S2050003CA1716
S2050003CB002C
S2050003CCB774
S2050003CD2604
S2050003CE0029
S2050003CF0028
S2050003D09394
S2050003D1978F
S2050003D227FE
S2050003D30024
S2050003D4B370
S2050003D5071B
S2050003D6F72A
S2050003D70020
S2050003D8031C
S2050003D9A777
S2050003DA0716
S2050003DB001C
S2050003DC8398
S2050003DD27F3
S2050003DE8495
S2050003DFFE1A
S2050003E09384
S2050003E1977F
S2050003E227EE
S2050003E30014
S2050003E4B360
S2050003E5878B
S2050003E6F61B
S2050003E70010
S2050003E823EC
S2050003E9A06E
S2050003EAE726
S2050003EB000C
S2050003EC37D4
S2050003ED27E3
S2050003EE0009
S2050003EF0008
S2050003F08384
S2050003F127DF
S2050003F28481
S2050003F3FE06
S2050003F49370
S2050003F5877B
S2050003F617EA
S2050003F70000
S2050003F8936C
S2050003F99767
S2050003FA27D6
S2050003FB00FC
S2050003FCB348
S2050003FD07F3
S2050003FEF702
S2050003FF00F8
S20500040003F3
S20500040127CE
S20500040244B0
S205000403FDF6
S20500040423CF
S205000405A051
S205000406E709
S20500040700EF
S205000408836B
S20500040927C6
S20500040A8468
S20500040BFEED
S20500040C9357
S20500040D8762
S20500040E17D1
S20500040F00E7
S20500041023C3
S20500041124C1
S205000412F4F0
S205000413FEE5
S20500041403DF
S20500041527BA
S205000416C41C
S205000417FDE2
S205000418835B
S20500041927B6
S20500041AC418
S20500041BFEDD
S20500041CB327
S20500041D07D2
S20500041EF7E1
S20500041F4097
S2050004209343
S205000421874E
S205000422F7DD
S205000423FFD4
S20500042403CF
S20500042527AA
S205000426844C
S205000427FED1
S205000428E3EB
S2050004294885
S20500042AF7D5
S20500042BF4D7
S20500042C8347
S20500042D27A2
S20500042EC404
S20500042FFEC9
S2050004309333
S205000431873E
S20500043217AD
S20500043300C3
S205000434239F
S205000435269B
S205000436F4CC
S205000437FEC1
S205000438833B
S2050004392796
S20500043AC4F8
S20500043BFDBE
S20500043C9327
S20500043D8732
S20500043EF7C1
S20500043FFFB8
S20500044003B3
S205000441278E
S205000442C4F0
S205000443FEB5
S205000444E3CF
S205000445466B
S205000446F7B9
S205000447F2BD
S205000448931B
S20500044907A6
S20500044A109C
S20500044B00AB
S20500044C2387
S20500044D2287
S20500044EF4B4
S20500044FFEA9
S205000450B7EF
S205000451D7CE
S205000452D9CB
S2050004531291
S205000454930F
S205000455871A
S2050004560799
S205000457CFD0
S205000458237B
S2050004592C71
S20500045AF4A8
S20500045BFC9F
S20500045C2377
S20500045D2079
S20500045E0494
S20500045FFE99
S2050004606F27
S2050004610095
S2050004628014
S2050004630390
S205000464375B
S205000465276A
S2050004660090
S205000467008F
S205000468830B
S2050004692766
S20500046A0488
S20500046BFE8D
S20500046C93F7
S20500046D97F2
S20500046E2761
S20500046F0087
S205000470B3D3
S205000471077E
S205000472F78D
S2050004730083
S20500047483FF
S205000475A7DA
S2050004760779
S205000477007F
S205000478037B
S2050004792756
S20500047A84F8
S20500047BFD7E
S20500047C6317
S20500047D1861
S20500047EF781
S20500047F0077
S20500048083F3
S205000481274E
S2050004820470
S205000483FE75
S205000484234F
S205000485224F
S205000486F47C
S205000487FE71
S2050004886FFF
S205000489006D
S20500048A006C
S20500048B0269
S20500048C83E7
S20500048D2742
S20500048E0464
S20500048FFE69
S20500049093D3
S20500049187DE
S205000492174D
S2050004930063
S205000494233F
S2050004952041
S205000496F46C
S205000497FE61
S20500049883DB
S2050004992736
S20500049AC498
S20500049BFD5E
S20500049C93C7
S20500049D87D2
S20500049EF761
S20500049FFF58
S2050004A00353
S2050004A1272E
S2050004A20450
S2050004A3FE55
S2050004A4E36F
S2050004A5D081
S2050004A6E769
S2050004A7FC53
S2050004A8B797
S2050004A92726
S2050004AA004C
S2050004AB004B
S2050004AC93B7
S2050004AD87C2
S2050004AEC781
S2050004AFFF48
S2050004B00343
S2050004B1271E
S2050004B24400
S2050004B3FE45
S2050004B4231F
S2050004B5A0A1
S2050004B6E759
S2050004B7003F
S2050004B893AB
S2050004B90736
S2050004BAF04C
S2050004BBFF3C
S2050004BC1327
S2050004BD0732
S2050004BE1028
S2050004BF0037
S2050004C02313
S2050004C180B5
S2050004C2E74D
S2050004C30033
S2050004C4939F
S2050004C5072A
S2050004C60030
S2050004C7002F
S2050004C8131B
S2050004C985A8
S2050004CA0725
S2050004CB002B
S2050004CC0327
S2050004CD2405
S2050004CEC167
S2050004CF0225
S2050004D01313
S2050004D10124
S2050004D20123
S2050004D30320
S2050004D467BB
S2050004D580A1
S2050004D60020
S2050004D7001F
S2050004D8130B
S2050004D9011C
S2050004DA011B
S2050004DBFE1D
S2050004DC23F7
S2050004DD2EEB
S2050004DE1107
S2050004DF0017
S2050004E023F3
S2050004E12CE9
S2050004E28193
S2050004E30013
S2050004E413FF
S2050004E5040D
S2050004E6010F
S2050004E7020D
S2050004E8F31B
S2050004E927E6
S2050004EA10FC
S2050004EB34D7
S2050004EC23E7
S2050004ED26E3
S2050004EEF414
S2050004EFFE09
S2050004F08383
S2050004F127DE
S2050004F2C440
S2050004F3FE05
S2050004F4837F
S2050004F5A75A
S2050004F607F9
S2050004F700FF
S2050004F823DB
S2050004F924D9
S2050004FAF408
S2050004FBFEFD
S2050004FC03F7
S2050004FD26D3
S2050004FE8474
S2050004FFFEF9
S2050005008372
S20500050125CF
S205000502C42F
S205000503FEF4
S205000504B73A
S20500050507E9
S20500050610DF
S20500050700EE
S20500050813DA
S2050005098567
S20500050AC724
S20500050B17D3
S20500050CEFFA
S20500050D00E8
S20500050E10D7
S20500050F04E2
S20500051013D2
S20500051105DF
S20500051210D3
S20500051300E2
S205000514EFF2
S20500051500E0
S205000516904F
S2050005173EA0
S20500051813CA
S20500051901DB
S20500051A01DA
S20500051BFDDD
S20500051C23B6
S20500051D26B2
S20500051E8156
S20500051F02D4
S20500052013C2
S20500052104D0
S20500052201D2
S20500052303CF
S20500052423AE
S2050005252EA2
S205000526A42B
S205000527FCD2
S205000528834A
S20500052927A5
S20500052AC407
S20500052BFDCD
S20500052C13B6
S20500052DD7F1
S20500052E17B0
S20500052F00C6
S2050005308342
S205000531279D
S205000532C4FF
S205000533FDC5
S205000534932E
S205000535D7E9
S2050005362798
S20500053700BE
S205000538B30A
S20500053907B5
S20500053AF7C4
S20500053B00BA
S20500053C2396
S20500053D2692
S20500053EF4C3
S20500053FFEB8
S2050005408332
S205000541278D
S205000542C4EF
S205000543FEB4
S205000544931E
S205000545D7D9
S2050005464768
S20500054700AE
S20500054803AA
S2050005492785
S20500054AC4E7
S20500054BFEAC
S20500054CB3F6
S20500054D07A1
S20500054EF7B0
S20500054F00A6
S2050005502382
S205000551267E
S205000552F4AF
S205000553FEA4
S205000554831E
S2050005552779
S205000556C4DB
S205000557FEA0
S205000558930A
S205000559D7C5
S20500055A8714
S20500055B009A
S20500055C0396
S20500055D2771
S20500055EC4D3
S20500055FFE98
S205000560B3E2
S205000561078D
S205000562F79C
S2050005630092
S205000564236E
S205000565266A
S205000566F49B
S205000567FE90
S205000568830A
S2050005692765
S20500056AC4C7
S20500056BFE8C
S20500056C93F6
S20500056DD7B1
S20500056E0780
S20500056F0185
S2050005700382
S205000571275D
S205000572C4BF
S205000573FE84
S205000574B3CE
S2050005750779
S205000576F788
S205000577007E
S205000578235A
S2050005792656
S20500057AF487
S20500057BFE7C
S20500057C83F6
S20500057D2751
S20500057EC4B3
S20500057FFE78
S20500058093E2
S205000581D79D
S205000582373C
S2050005830072
S205000584234E
S205000585264A
S205000586F47B
S205000587FE70
S205000588036A
S2050005892745
S20500058AC4A7
S20500058BFE6C
S20500058C93D6
S20500058D0761
S20500058E0760
S20500058F0066
S20500059093D2
S20500059197CD
S205000592273C
S2050005930062
S205000594B3AE
S20500059587D9
S205000596E778
S205000597005E
S20500059893CA
S20500059997C5
S20500059A1744
S20500059B005A
S20500059C1346
S20500059D87D1
S20500059E0750
S20500059F0056
S2050005A083D2
S2050005A1272D
S2050005A2C48F
S2050005A3FD55
S2050005A4B39E
S2050005A587C9
S2050005A6E768
S2050005A7400E
S2050005A8232A
S2050005A92428
S2050005AAF457
S2050005ABFE4C
S2050005AC83C6
S2050005AD2721
S2050005AE84C3
S2050005AFFE48
S2050005B093B2
S2050005B187BD
S2050005B267DC
S2050005B30042
S2050005B4132E
S2050005B5D769
S2050005B647F8
S2050005B7003E
S2050005B883BA
S2050005B92715
S2050005BAC477
S2050005BBFE3C
S2050005BCB386
S2050005BD0731
S2050005BEF740
S2050005BF0036
S2050005C01322
S2050005C185AF
S2050005C2072C
S2050005C30032
S2050005C4032E
S2050005C5240C
S2050005C6C16E
S2050005C7022C
S2050005C8131A
S2050005C9012B
S2050005CA012A
S2050005CB0327
S2050005CC67C2
S2050005CD80A8
S2050005CE0027
S2050005CF0026
S2050005D01312
S2050005D10123
S2050005D20122
S2050005D3FE24
S2050005D423FE
S2050005D52EF2
S2050005D6819E
S2050005D7001E
S2050005D8130A
S2050005D90418
S2050005DA011A
S2050005DB0218
S2050005DC23F6
S2050005DD26F2
S2050005DEA473
S2050005DFFE18
S2050005E00312
S2050005E127ED
S2050005E2C44F
S2050005E3FE14
S2050005E4B75A
S2050005E5A769
S2050005E69976
S2050005E719F5
S2050005E8937A
S2050005E98785
S2050005EA9774
S2050005EB9971
S2050005EC33D6
S2050005ED0701
S2050005EEF710
S2050005EF0204
S2050005F08382
S2050005F127DD
S2050005F2C43F
S2050005F3FE04
S2050005F4936E
S2050005F5D729
S2050005F617E8
S2050005F700FE
S2050005F833CA
S2050005F907F5
S2050005FAF704
S2050005FB00FA
S2050005FC8376
S2050005FD27D1
S2050005FEC433
S2050005FFFEF8
S2050006009361
S205000601D71C
S20500060237BB
S20500060300F1
S205000604B33D
S20500060507E8
S205000606F7F7
S20500060700ED
S2050006089359
S205000609D714
S20500060AC723
S20500060B01E8
S20500060C23C5
S20500060D26C1
S20500060EF4F2
S20500060FFEE7
S205000610B72D
S20500061107DC
S20500061210D2
S20500061300E1
S20500061413CD
S2050006158758
S205000616C717
S2050006171BC2
S2050006188359
S20500061927B4
S20500061AC416
S20500061BFEDB
S20500061CB325
S20500061D07D0
S20500061EF7DF
S20500061F00D5
S2050006208351
S205000621C70C
S20500062207CB
S20500062300D1
S20500062413BD
S205000625854A
S20500062607C7
S20500062700CD
S20500062803C9
S20500062924A7
S20500062AC109
S20500062B01C8
S20500062C13B5
S20500062D01C6
S20500062E01C5
S20500062F02C3
S205000630675D
S2050006318043
S20500063200C2
S20500063300C1
S20500063413AD
S20500063501BE
S20500063601BD
S205000637FEBF
S2050006382399
S2050006392E8D
S20500063A11A9
S20500063B00B9
S20500063C2395
S20500063D2C8B
S20500063E8135
S20500063F00B5
S20500064013A1
S20500064104AF
S20500064201B1
S20500064302AF
S205000644238D
S2050006452689
S205000646A40A
S205000647FEAF
S2050006488329
S2050006492784
S20500064AC4E6
S20500064BFEAB
S20500064C9315
S20500064DF7B0
S20500064EF7AF
S20500064F0F96
S2050006501391
S205000651851E
S205000652079B
S20500065300A1
S205000654EFB1
S205000655009F
S205000656D0CE
S205000657227B
S2050006588319
S2050006592774
S20500065AC4D6
S20500065BFE9B
S20500065C1385
S20500065D8512
S20500065E078F
S20500065F0095
S2050006608311
S2050006612073
S205000662C1D1
S2050006630190
S205000664038D
S205000665246B
S205000666810D
S205000667018C
S2050006681379
S205000669018A
S20500066A0189
S20500066B0287
S20500066C6721
S20500066D8007
S20500066E0086
S20500066F0085
S2050006701371
S2050006710182
S2050006720181
S205000673FE83
S205000674235D
S2050006752E51
S205000676116D
S205000677007D
S2050006782359
S2050006792C4F
S20500067A81F9
S20500067B0079
S20500067C1365
S20500067D0473
S20500067E0175
S20500067F0273
S2050006802351
S205000681264D
S205000682A4CE
S205000683FE73
S205000684234D
S205000685244B
S205000686B4BA
S205000687FE6F
S20500068883E9
S2050006892744
S20500068AC4A6
S20500068BFE6B
S20500068C6305
S20500068D88DF
S20500068E075F
S20500068F0263
S20500069083E1
S205000691273C
S205000692C49E
S205000693FE63
S20500069483DD
S205000695A7B8
S2050006960757
S205000697005D
S2050006980359
S2050006992734
S20500069A84D6
S20500069BFE5B
S20500069C1345
S20500069D77E0
S20500069EF75F
S20500069F0F46
S2050006A02331
S2050006A180D3
S2050006A2E76B
S2050006A30051
S2050006A483CD
S2050006A52728
S2050006A6C48A
S2050006A7FE4F
S2050006A883C9
S2050006A9A7A4
S2050006AA0743
S2050006AB0049
S2050006AC1335
S2050006AD87C0
S2050006AE172F
S2050006AF0045
S2050006B083C1
S2050006B1271C
S2050006B2C47E
S2050006B3FE43
S2050006B4231D
S2050006B5A09F
S2050006B6E757
S2050006B7003D
S2050006B86FCD
S2050006B9003B
S2050006BA40FA
S2050006BB0138
S2050006BC83B5
S2050006BD2710
S2050006BE84B2
S2050006BFFE37
S2050006C093A1
S2050006C1F73C
S2050006C2F73B
S2050006C30F22
S2050006C4131D
S2050006C585AA
S2050006C60727
S2050006C7002D
S2050006C8EF3D
S2050006C9F03B
S2050006CADF4B
S2050006CBF633
S2050006CC1315
S2050006CD0027
S2050006CE0026
S2050006CF0025
S2050006D083A1
S2050006D12003
S2050006D2C161
S2050006D30120
S2050006D4031D
S2050006D524FB
S2050006D6819D
S2050006D7011C
S2050006D81309
S2050006D9011A
S2050006DA0119
S2050006DB0217
S2050006DC67B1
S2050006DD8097
S2050006DE0016
S2050006DF0015
S2050006E01301
S2050006E10112
S2050006E20111
S2050006E3FD14
S2050006E423ED
S2050006E526E9
S2050006E611FD
S2050006E7020B
S2050006E823E9
S2050006E924E7
S2050006EA8189
S2050006EB0207
S2050006EC23E5
S2050006ED22E5
S2050006EE9175
S2050006EF0203
S2050006F023E1
S2050006F120E3
S2050006F221E1
S2050006F303FE
S2050006F423DD
S2050006F52ED1
S2050006F631CD
S2050006F701FC
S2050006F823D9
S2050006F92CCF
S2050006FA41B9
S2050006FB01F8
S2050006FC13E5
S2050006FD04F3
S2050006FE01F5
S2050006FF03F2
S20500070023D0
S2050007012EC4
S205000702A44D
S205000703FCF4
S20500070423CC
S2050007052CC2
S205000706B439
S205000707FCF0
S20500070823C8
S2050007092AC0
S20500070AC425
S20500070BFCEC
S20500070C23C4
S20500070D28BE
S20500070ED411
S20500070FFCE8
S2050007109350
S20500071104DE
S20500071200E1
S20500071300E0
S20500071413CC
S2050007150AD4
S20500071600DD
S20500071702DA
S2050007188358
S20500071927B3
S20500071A4495
S20500071BFDDB
S20500071C6374
S20500071D5680
S20500071EF0E5
S20500071F04D0
S20500072013C0
S20500072109C9
S20500072200D1
S20500072300D0
S205000724834C
S20500072529A5
S2050007268449
S205000727FDCF
S2050007286F5C
S20500072900CA
S20500072AC009
S20500072B00C8
S20500072C13B4
S20500072D09BD
S20500072E19AC
S20500072F00C4
S2050007309330
S2050007318939
S20500073219A8
S20500073300C0
S205000734833C
S205000735C7F7
S20500073609B4
S20500073700BC
S205000738E3D8
S2050007399A20
S20500073A07B2
S20500073BFEBA
S20500073C8334
S20500073D278F
S20500073E4471
S20500073FFDB7
S2050007406350
S205000741466C
S205000742F9B8
S20500074300B0
S205000744238C
S2050007452A84
S20500074604A9
S205000747FCB0
S2050007486F3C
S20500074900AA
S20500074A00A9
S20500074B01A7
S20500074C8324
S20500074D277F
S20500074E4461
S20500074FFDA7
S205000750B3F0
S205000751871B
S205000752277A
S205000753415F
S205000754237C
S2050007552A74
S205000756F4A9
S205000757FCA0
S2050007588318
S2050007592773
S20500075A0495
S20500075BFD9B
S20500075C9304
S20500075DF79F
S20500075E276E
S20500075F0094
S2050007606330
S205000761840E
S205000762078A
S2050007630090
S205000764137C
S2050007650A84
S205000766008D
S2050007670389
S2050007688308
S2050007692763
S20500076A0485
S20500076BFD8B
S20500076C93F4
S20500076DF78F
S20500076E176E
S20500076F0084
S2050007706320
S2050007719AE8
S205000772077A
S205000773047C
S2050007746F10
S205000775007E
S205000776007D
S205000777027A
S20500077893E8
S2050007790575
S20500077A0A6F
S20500077B0078
S20500077C0374
S20500077D2551
S20500077EC4B1
S20500077FFD77
S205000780EF84
S205000781F082
S2050007821F52
S205000783EF81
S20500078493DC
S20500078584EA
S2050007861459
S205000787006C
S20500078883E8
S2050007892743
S20500078A4425
S20500078BFD6B
S20500078C93D4
S20500078D87DF
S20500078EF76E
S20500078FFF65
S2050007902340
S2050007912A38
S205000792F46D
S205000793FC64
S20500079483DC
S2050007952737
S2050007964419
S205000797FD5F
S205000798E378
S205000799401A
S20500079AF069
S20500079BFE5A
S20500079C6FE8
S20500079D0056
S20500079E80D5
S20500079F0252
S2050007A083D0
S2050007A1272B
S2050007A284CD
S2050007A3FD53
S2050007A483CC
S2050007A5C787
S2050007A60746
S2050007A7004C
S2050007A893B8
S2050007A985C5
S2050007AA0742
S2050007AB0048
S2050007AC0344
S2050007AD2521
S2050007AEC481
S2050007AFFD47
S2050007B0EF54
S2050007B1F052
S2050007B21F22
S2050007B3EC54
S2050007B493AC
S2050007B584BA
S2050007B61429
S2050007B7003C
S2050007B883B8
S2050007B92713
S2050007BA84B5
S2050007BBFD3B
S2050007BC93A4
S2050007BD87AF
S2050007BE171E
S2050007BF0034
S2050007C02310
S2050007C12C06
S2050007C2F43D
S2050007C3FC34
S2050007C483AC
S2050007C52707
S2050007C684A9
S2050007C7FD2F
S2050007C883A8
S2050007C9C763
S2050007CA0722
S2050007CB0028
S2050007CCE344
S2050007CD9A8C
S2050007CE071E
S2050007CFFC28
S2050007D06FB4
S2050007D10022
S2050007D20021
S2050007D3021E
S2050007D4938C
S2050007D50519
S2050007D60A13
S2050007D7001C
S2050007D80318
S2050007D925F5
S2050007DAC455
S2050007DBFD1B
S2050007DCEF28
S2050007DDF026
S2050007DE5FB6
S2050007DFE92B
S2050007E09380
S2050007E1848E
S2050007E214FD
S2050007E30010
S2050007E4838C
S2050007E527E7
S2050007E644C9
S2050007E7FD0F
S2050007E89378
S2050007E98783
S2050007EAF712
S2050007EBFF09
S2050007EC23E4
S2050007ED2ADC
S2050007EEF411
S2050007EFFC08
S2050007F08380
S2050007F127DB
S2050007F244BD
S2050007F3FD03
S2050007F4E31C
S2050007F540BE
S2050007F6F00D
S2050007F7FEFE
S2050007F89368
S2050007F98773
S2050007FA04F5
S2050007FB00F8
S2050007FC13E4
S2050007FD8571
S2050007FE07EE
S2050007FF00F4
S205000800836F
S20500080120D1
S205000802C12F
S20500080302ED
S20500080403EB
S20500080524C9
S205000806816B
S20500080702E9
S2050008088367
S20500080924C5
S20500080A41A7
S20500080B02E5
S20500080C03E3
S20500080D29BC
S20500080E01E3
S20500080F02E1
S205000810835F
S20500081129B8
S205000812C11F
S20500081301DE
S20500081403DB
S2050008152AB3
S205000816815B
S20500081701DA
S20500081813C7
S20500081901D8
S20500081A01D7
S20500081B03D4
S20500081C676F
S20500081D8055
S20500081E00D4
S20500081F00D3
S20500082013BF
S20500082101D0
S20500082201CF
S205000823F9D6
S20500082423AB
S20500082526A7
S20500082611BB
S20500082706C5
S20500082823A7
S20500082924A5
S20500082A8147
S20500082B06C1
S20500082C23A3
S20500082D22A3
S20500082E9133
S20500082F06BD
S205000830239F
S20500083120A1
S205000832219F
S20500083307B8
S205000834239B
S2050008352E8F
S205000836318B
S20500083705B6
S20500083813A7
S20500083904B5
S20500083A01B7
S20500083B07B0
S20500083C2393
S20500083D268F
S20500083EA410
S20500083FFAB9
S205000840238F
S205000841248D
S205000842B4FC
S205000843FAB5
S205000844238B
S205000845228B
S205000846C4E8
S205000847FAB1
S2050008482387
S2050008492089
S20500084AD4D4
S20500084BFAAD
S20500084C2383
S20500084D2E77
S20500084EE4C0
S20500084FF8AB
S205000850237F
S2050008512C75
S205000852F4AC
S205000853F8A7
S205000854930B
S2050008550796
S2050008560894
S205000857009B
S205000858A3F7
S2050008590B8E
S20500085AF4A4
S20500085BF89F
S20500085C9303
S20500085D098C
S20500085E0094
S20500085F0093
S205000860137F
S2050008610988
S2050008620090
S205000863008F
S205000864830B
S2050008652766
S2050008668408
S205000867FA91
S2050008682367
S2050008692E5B
S20500086AF494
S20500086BFC8B
S20500086C8303
S20500086D275E
S20500086E8400
S20500086FFA89
S205000870631F
S20500087198E9
S2050008720779
S205000873027D
S20500087493EB
S2050008750776
S205000876007C
S2050008770378
S2050008782357
S2050008790C6D
S20500087AF484
S20500087BFA7D
S20500087CA3D3
S20500087D0C69
S20500087E0470
S20500087FFA79
S20500088093DF
S205000881076A
S20500088284EC
S205000883FB74
S20500088483EB
S2050008852647
S20500088684E8
S205000887F972
S2050008880367
S2050008892643
S20500088AC4A4
S20500088BF96E
S20500088C93D3
S20500088D85E0
S20500088E075D
S20500088F0063
S205000890035F
S205000891253C
S205000892C49C
S205000893FA65
S205000894EF6F
S205000895F06D
S205000896DF7D
S205000897E477
S20500089893C7
S2050008990752
S20500089A0553
S20500089B0057
S20500089C6FE7
S20500089D0055
S20500089EC094
S20500089F1340
S2050008A083CF
S2050008A1272A
S2050008A2044C
S2050008A3FA55
S2050008A463EB
S2050008A584C9
S2050008A60745
S2050008A70249
S2050008A80347
S2050008A92722
S2050008AA4404
S2050008ABFA4D
S2050008AC93B3
S2050008AD073E
S2050008AEA0A4
S2050008AF0043
S2050008B063DF
S2050008B11E23
S2050008B2F749
S2050008B3003F
S2050008B483BB
S2050008B52716
S2050008B684B8
S2050008B7FA41
S2050008B863D7
S2050008B9DA5F
S2050008BA0731
S2050008BB0037
S2050008BC93A3
S2050008BD092C
S2050008BE1024
S2050008BF0033
S2050008C083AF
S2050008C1270A
S2050008C284AC
S2050008C3FA35
S2050008C4B37B
S2050008C50726
S2050008C6F03C
S2050008C740EB
S2050008C82307
S2050008C92EFB
S2050008CAF434
S2050008CBFC2B
S2050008CC9393
S2050008CD0421
S2050008CE84A0
S2050008CFFB28
S2050008D0938F
S2050008D1849D
S2050008D2F42C
S2050008D3011E
S2050008D423FB
S2050008D5809D
S2050008D60418
S2050008D7001B
S2050008D80317
S2050008D927F2
S2050008DA44D4
S2050008DBFA1D
S2050008DC9383
S2050008DD070E
S2050008DE0014
S2050008DF0112
S2050008E063AF
S2050008E118F9
S2050008E2F719
S2050008E30807
S2050008E46F9F
S2050008E5000D
S2050008E640CC
S2050008E70506
S2050008E88387
S2050008E927E2
S2050008EAC444
S2050008EBFD0A
S2050008EC9373
S2050008EDF70E
S2050008EEF70D
S2050008EF0003
S2050008F023DF
S2050008F12CD5
S2050008F2F40C
S2050008F3FC03
S2050008F403FB
S2050008F527D6
S2050008F68478
S2050008F7FDFE
S2050008F89367
S2050008F907F2
S2050008FA9068
S2050008FB00F7
S2050008FC6393
S2050008FDDC19
S2050008FEE70D
S2050008FF00F3
S205000900836E
S20500090147A9
S205000902747B
S205000903F9F5
S205000904935A
S2050009058765
S2050009066784
S205000907FCEE
S20500090803E6
S20500090927C1
S20500090A8463
S20500090BFDE9
S20500090CB332
S20500090D07DD
S20500090EF7EC
S20500090F00E2
S20500091023BE
S2050009112CB4
S205000912F4EB
S205000913FCE2
S205000914835A
S20500091527B5
S2050009168457
S205000917FDDD
S2050009189346
S205000919F7E1
S20500091AF7E0
S20500091B0FC7
S20500091C9342
S20500091D8450
S20500091EF4DF
S20500091FFFD3
S205000920933E
S2050009218749
S20500092207C8
S20500092303CB
S205000924933A
S205000925F7D5
S205000926F7D4
S2050009270FBB
S20500092823A6
S2050009298048
S20500092AF4D3
S20500092B00C6
S20500092C8342
S20500092D279D
S20500092EC4FF
S20500092FFDC5
S205000930932E
S205000931D7E9
S2050009324778
S20500093300BE
S205000934239A
S2050009352E8E
S205000936F4C7
S205000937FCBE
S2050009388336
S2050009392791
S20500093AC4F3
S20500093BFDB9
S20500093CE3D2
S20500093D961E
S20500093E07AC
S20500093FFAB8
S2050009406F42
S20500094100B0
S205000942802F
S20500094303AB
S20500094403AA
S2050009452587
S205000946C4E7
S205000947FDAD
S205000948EFBA
S205000949F0B8
S20500094A9F08
S20500094BC8DE
S20500094C9312
S20500094D079D
S20500094E059E
S20500094F00A2
S205000950930E
S205000951F7A9
S205000952F7A8
S2050009530F8F
S205000954930A
S2050009558418
S205000956F4A7
S205000957FF9B
S2050009589306
S2050009598711
S20500095A0790
S20500095B0393
S20500095C9302
S20500095DF79D
S20500095EF79C
S20500095F0F83
S205000960236E
S2050009618010
S205000962F49B
S205000963008E
S205000964038A
S2050009652567
S205000966C4C7
S205000967FD8D
S205000968EF9A
S205000969F098
S20500096A1F68
S20500096BBBCB
S20500096C2362
S20500096D2E56
S20500096EA4DF
S20500096FFC86
S20500097083FE
S2050009712759
S205000972C4BB
S205000973FD81
S205000974E39A
S20500097598E4
S2050009760774
S205000977FC7E
S2050009786316
S20500097982F6
S20500097A096E
S20500097B0472
S20500097C83F2
S20500097D274D
S20500097EC4AF
S20500097FF979
S205000980630E
S20500098188E8
S2050009820768
S205000983026C
S20500098483EA
S2050009852745
S20500098684E7
S205000987F971
S20500098893D6
S205000989F771
S20500098A2740
S20500098B0066
S20500098C6302
S20500098D82E2
S20500098E075C
S20500098F0260
S20500099093CE
S205000991055B
S205000992D08F
S205000993025C
S205000994035A
S2050009952537
S205000996C497
S205000997FA60
S205000998EF6A
S205000999F068
S20500099A9FB8
S20500099BCD89
S20500099C1342
S20500099D094B
S20500099E193A
S20500099F0052
S2050009A083CE
S2050009A12729
S2050009A2C48B
S2050009A3F955
S2050009A493BA
S2050009A587C5
S2050009A6F754
S2050009A7FF4B
S2050009A82326
S2050009A92E1A
S2050009AAF453
S2050009ABF84E
S2050009AC6FD6
S2050009AD0044
S2050009AE0043
S2050009AF0141
S2050009B093AE
S2050009B184BC
S2050009B2F44B
S2050009B3FF3F
S2050009B493AA
S2050009B50735
S2050009B6D06B
S2050009B70238
S2050009B82316
S2050009B980B8
S2050009BAF443
S2050009BB0036
S2050009BC83B2
S2050009BD260E
S2050009BE84AF
S2050009BFF939
S2050009C0032E
S2050009C1260A
S2050009C2C46B
S2050009C3F935
S2050009C4939A
S2050009C585A7
S2050009C60427
S2050009C7002A
S2050009C80326
S2050009C92503
S2050009CAC463
S2050009CBFA2C
S2050009CCEF36
S2050009CDF034
S2050009CE5FC4
S2050009CFD151
S2050009D0938E
S2050009D10719
S2050009D2051A
S2050009D3001E
S2050009D4B36A
S2050009D50715
S2050009D6F922
S2050009D7001A
S2050009D81306
S2050009D98593
S2050009DA0710
S2050009DB0016
S2050009DC8392
S2050009DD20F4
S2050009DEC152
S2050009DF060C
S2050009E0030E
S2050009E124EC
S2050009E2818E
S2050009E30608
S2050009E4838A
S2050009E524E8
S2050009E641CA
S2050009E70604
S2050009E80306
S2050009E929DF
S2050009EA0106
S2050009EB0600
S2050009EC8382
S2050009ED29DB
S2050009EEC142
S2050009EF05FD
S2050009F013EE
S2050009F101FF
S2050009F201FE
S2050009F307F7
S2050009F46796
S2050009F5807C
S2050009F600FB
S2050009F700FA
S2050009F813E6
S2050009F901F7
S2050009FA01F6
S2050009FBFCFA
S2050009FC23D2
S2050009FD2EC6
S2050009FE11E2
S2050009FF02F0
S205000A0023CD
S205000A012CC3
S205000A02816D
S205000A0302EB
S205000A0423C9
S205000A052AC1
S205000A069159
S205000A0702E7
S205000A0823C5
S205000A0928BF
S205000A0A21C5
S205000A0B03E2
S205000A0C23C1
S205000A0D26BD
S205000A0E31B1
S205000A0F03DE
S205000A1013CD
S205000A1104DB
S205000A1201DD
S205000A1304D9
S205000A1423B9
S205000A1526B5
S205000A16A436
S205000A17FCDD
S205000A1823B5
S205000A1924B3
S205000A1AB422
S205000A1BFCD9
S205000A1C23B1
S205000A1D22B1
S205000A1EC40E
S205000A1FFCD5
S205000A20933D
S205000A2104CB
S205000A2200CE
S205000A2300CD
S205000A246F5D
S205000A2500CB
S205000A26C00A
S205000A272D9C
S205000A288345
S205000A2927A0
S205000A2A8442
S205000A2BFCC9
S205000A2C03C1
S205000A2DC7FC
S205000A2E07BB
S205000A2F00C1
S205000A30932D
S205000A3107B8
S205000A32506E
S205000A3302BB
S205000A346359
S205000A351E9D
S205000A36F7C3
S205000A372891
S205000A388335
S205000A392790
S205000A3A8432
S205000A3BFCB9
S205000A3C9321
S205000A3D872C
S205000A3E179B
S205000A3F00B1
S205000A40238D
S205000A41248B
S205000A42F4BA
S205000A43FCB1
S205000A449319
S205000A4509A2
S205000A4600AA
S205000A4700A9
S205000A481395
S205000A49891E
S205000A4A099D
S205000A4B00A5
S205000A4C8321
S205000A4D277C
S205000A4E841E
S205000A4FFCA5
S205000A50831D
S205000A51C7D8
S205000A520797
S205000A53009D
S205000A546339
S205000A558E0D
S205000A560793
S205000A572A6F
S205000A588315
S205000A592770
S205000A5A8412
S205000A5BFC99
S205000A5C0391
S205000A5DC7CC
S205000A5E078B
S205000A5F0091
S205000A6093FD
S205000A610788
S205000A62503E
S205000A63028B
S205000A646329
S205000A650A81
S205000A66F793
S205000A672663
S205000A688305
S205000A692760
S205000A6A8402
S205000A6BFC89
S205000A6C0381
S205000A6DC7BC
S205000A6E077B
S205000A6F0081
S205000A7093ED
S205000A710778
S205000A72D0AE
S205000A73027B
S205000A746319
S205000A751467
S205000A76F783
S205000A770277
S205000A7883F5
S205000A792750
S205000A7A84F2
S205000A7BFC79
S205000A7C93E1
S205000A7D87EC
S205000A7E175B
S205000A7F0071
S205000A80234D
S205000A81244B
S205000A82F47A
S205000A83FC71
S205000A8493D9
S205000A850962
S205000A86105A
S205000A870069
S205000A886FF9
S205000A890067
S205000A8A4026
S205000A8B0164
S205000A8C83E1
S205000A8D273C
S205000A8E84DE
S205000A8FFC65
S205000A9093CD
S205000A9187D8
S205000A921747
S205000A93005D
S205000A942339
S205000A952437
S205000A96F466
S205000A97FC5D
S205000A9893C5
S205000A99E96E
S205000A9A292D
S205000A9B0055
S205000A9C83D1
S205000A9D272C
S205000A9E84CE
S205000A9FFC55
S205000AA0034D
S205000AA1C788
S205000AA20747
S205000AA3004D
S205000AA493B9
S205000AA50744
S205000AA6004A
S205000AA70346
S205000AA8E365
S205000AA90245
S205000AAAF74F
S205000AABFE47
S205000AAC6FD5
S205000AAD0043
S205000AAE4002
S205000AAF033E
S205000AB093AD
S205000AB10738
S205000AB20935
S205000AB3003D
S205000AB493A9
S205000AB597A4
S205000AB62713
S205000AB70039
S205000AB8B385
S205000AB987B0
S205000ABA270F
S205000ABB0134
S205000ABC93A1
S205000ABD979C
S205000ABE171B
S205000ABF0031
S205000AC0131D
S205000AC189A6
S205000AC20727
S205000AC3002D
S205000AC483A9
S205000AC52704
S205000AC684A6
S205000AC7FC2D
S205000AC883A5
S205000AC9C760
S205000ACA071F
S205000ACB0025
S205000ACC9391
S205000ACD879C
S205000ACE071B
S205000ACFFD24
S205000AD033ED
S205000AD10916
S205000AD2F925
S205000AD3001D
S205000AD48399
S205000AD527F4
S205000AD68496
S205000AD7FC1D
S205000AD89385
S205000AD98790
S205000ADA17FF
S205000ADB0015
S205000ADC23F1
S205000ADD24EF
S205000ADEF41E
S205000ADFFC15
S205000AE0838D
S205000AE127E8
S205000AE2848A
S205000AE3FC11
S205000AE40309
S205000AE5C744
S205000AE60703
S205000AE70009
S205000AE89375
S205000AE90700
S205000AEAF016
S205000AEB0203
S205000AEC63A1
S205000AEDFA09
S205000AEEE71B
S205000AEF0001
S205000AF0837D
S205000AF127D8
S205000AF2847A
S205000AF3FC01
S205000AF403F9
S205000AF5C734
S205000AF607F3
S205000AF700F9
S205000AF89365
S205000AF907F0
S205000AFA9066
S205000AFB03F2
S205000AFCE311
S205000AFDFAF9
S205000AFEE70B
S205000AFFFAF7
S205000B00836C
S205000B0127C7
S205000B028469
S205000B03FCF0
S205000B0403E8
S205000B05C723
S205000B0607E2
S205000B0700E8
S205000B089354
S205000B0907DF
S205000B0A30B5
S205000B0B07DD
S205000B0C6380
S205000B0D14CE
S205000B0EF7EA
S205000B0F04DC
S205000B10835C
S205000B1127B7
S205000B124499
S205000B13FCE0
S205000B1413C8
S205000B158753
S205000B164792
S205000B1700D8
S205000B1823B4
S205000B1922B4
S205000B1AE4F1
S205000B1BFCD8
S205000B1C8350
S205000B1DA032
S205000B1E07CA
S205000B1F00D0
S205000B20636C
S205000B218648
S205000B2200CD
S205000B2300CC
S205000B249338
S205000B258743
S205000B2600C9
S205000B2700C8
S205000B286F58
S205000B2900C6
S205000B2AC005
S205000B2B00C4
S205000B2CB70C
S205000B2D07BB
S205000B2E10B1
S205000B2F00C0
S205000B30932C
S205000B318737
S205000B324776
S205000B331BA1
S205000B349328
S205000B358634
S205000B3609B0
S205000B3700B8
S205000B3813A4
S205000B3906B0
S205000B3A09AC
S205000B3B00B4
S205000B3C9320
S205000B3D852D
S205000B3E07AA
S205000B3F00B0
S205000B4003AC
S205000B412589
S205000B42C4E9
S205000B43FCB0
S205000B44EFBC
S205000B45F0BA
S205000B46DFCA
S205000B47B9EF
S205000B489314
S205000B49079F
S205000B4A05A0
S205000B4B00A4
S205000B4CB3F0
S205000B4D841E
S205000B4EF4AD
S205000B4F00A0
S205000B506F30
S205000B51009E
S205000B52405D
S205000B531A82
S205000B548318
S205000B552773
S205000B568415
S205000B57FC9C
S205000B580394
S205000B59C7CF
S205000B5A078E
S205000B5B0094
S205000B5C9300
S205000B5D078B
S205000B5E4051
S205000B5F068A
S205000B60632C
S205000B611E70
S205000B62F796
S205000B63028A
S205000B648308
S205000B652763
S205000B664445
S205000B67FC8C
S205000B681374
S205000B6987FF
S205000B6A473E
S205000B6B0084
S205000B6C2360
S205000B6D2260
S205000B6EE49D
S205000B6FFC84
S205000B7083FC
S205000B71A5D9
S205000B720776
S205000B73007C
S205000B741368
S205000B750872
S205000B761069
S205000B770672
S205000B7893E4
S205000B7987EF
S205000B7A096C
S205000B7B0074
S205000B7C1360
S205000B7D076B
S205000B7E0968
S205000B7F0070
S205000B8093DC
S205000B810668
S205000B82105D
S205000B83006C
S205000B841358
S205000B850664
S205000B86A0C9
S205000B870068
S205000B880364
S205000B892541
S205000B8AC4A1
S205000B8BFC68
S205000B8CEF74
S205000B8DF072
S205000B8E5F02
S205000B8FC997
S205000B9093CC
S205000B910757
S205000B920558
S205000B93005C
S205000B94B3A8
S205000B9584D6
S205000B96F465
S205000B970058
S205000B986FE8
S205000B990056
S205000B9AC095
S205000B9B153F
S205000B9C83D0
S205000B9D272B
S205000B9E84CD
S205000B9FFC54
S205000BA0034C
S205000BA1C787
S205000BA20746
S205000BA3004C
S205000BA493B8
S205000BA50743
S205000BA650F9
S205000BA70741
S205000BA863E4
S205000BA91036
S205000BAAF74E
S205000BAB0440
S205000BAC83C0
S205000BAD271B
S205000BAE44FD
S205000BAFFC44
S205000BB0132C
S205000BB187B7
S205000BB247F6
S205000BB3003C
S205000BB42318
S205000BB52218
S205000BB6E455
S205000BB7FC3C
S205000BB883B4
S205000BB9A78F
S205000BBA072E
S205000BBB0034
S205000BBC93A0
S205000BBD85AD
S205000BBE072A
S205000BBF0030
S205000BC0131C
S205000BC10826
S205000BC2101D
S205000BC30626
S205000BC49398
S205000BC587A3
S205000BC60920
S205000BC70028
S205000BC81314
S205000BC9071F
S205000BCA091C
S205000BCB0024
S205000BCC9390
S205000BCD061C
S205000BCE0021
S205000BCF0020
S205000BD0130C
S205000BD10618
S205000BD2A07D
S205000BD3001C
S205000BD40318
S205000BD525F5
S205000BD6C455
S205000BD7FC1C
S205000BD8EF28
S205000BD9F026
S205000BDA9F76
S205000BDBC450
S205000BDC9380
S205000BDD070B
S205000BDE050C
S205000BDF0010
S205000BE0B35C
S205000BE1848A
S205000BE2F419
S205000BE3000C
S205000BE46F9C
S205000BE5000A
S205000BE60009
S205000BE711F7
S205000BE88384
S205000BE927DF
S205000BEA8481
S205000BEBFC08
S205000BEC0300
S205000BEDC73B
S205000BEE07FA
S205000BEF0000
S205000BF0936C
S205000BF107F7
S205000BF2807D
S205000BF307F5
S205000BF46398
S205000BF510EA
S205000BF6F702
S205000BF704F4
S205000BF88374
S205000BF927CF
S205000BFA44B1
S205000BFBFCF8
S205000BFC13E0
S205000BFD876B
S205000BFE47AA
S205000BFF00F0
S205000C0023CB
S205000C0122CB
S205000C02E408
S205000C03FCEF
S205000C048367
S205000C05A742
S205000C0607E1
S205000C0700E7
S205000C089353
S205000C098560
S205000C0A07DD
S205000C0B00E3
S205000C0C13CF
S205000C0D08D9
S205000C0E10D0
S205000C0F06D9
S205000C10934B
S205000C118756
S205000C1209D3
S205000C1300DB
S205000C1413C7
S205000C1507D2
S205000C1609CF
S205000C1700D7
S205000C189343
S205000C1906CF
S205000C1A00D4
S205000C1B00D3
S205000C1C13BF
S205000C1D06CB
S205000C1E00D0
S205000C1F01CE
S205000C2003CB
S205000C2125A8
S205000C22C408
S205000C23FCCF
S205000C24EFDB
S205000C25F0D9
S205000C26DFE9
S205000C27BF08
S205000C289333
S205000C2907BE
S205000C2A05BF
S205000C2B00C3
S205000C2CB30F
S205000C2D843D
S205000C2EF4CC
S205000C2F00BF
S205000C306F4F
S205000C3100BD
S205000C32407C
S205000C330CAF
S205000C348337
S205000C352792
S205000C368434
S205000C37FCBB
S205000C3803B3
S205000C39C7EE
S205000C3A07AD
S205000C3B00B3
S205000C3C931F
S205000C3D07AA
S205000C3E8030
S205000C3F05AA
S205000C40634B
S205000C41109D
S205000C42F7B5
S205000C4304A7
S205000C448327
S205000C452782
S205000C464464
S205000C47FCAB
S205000C481393
S205000C49871E
S205000C4A475D
S205000C4B00A3
S205000C4C237F
S205000C4D227F
S205000C4EE4BC
S205000C4FFCA3
S205000C50831B
S205000C51A7F6
S205000C520795
S205000C53009B
S205000C549307
S205000C558514
S205000C560791
S205000C570097
S205000C581383
S205000C59088D
S205000C5A1084
S205000C5B048F
S205000C5C93FF
S205000C5D870A
S205000C5E0987
S205000C5F008F
S205000C60137B
S205000C610786
S205000C620983
S205000C63008B
S205000C6493F7
S205000C650683
S205000C660088
S205000C670087
S205000C681373
S205000C69067F
S205000C6A0084
S205000C6B0182
S205000C6C037F
S205000C6D255C
S205000C6EC4BC
S205000C6FFC83
S205000C70EF8F
S205000C71F08D
S205000C721F5D
S205000C73BBC0
S205000C7493E7
S205000C750772
S205000C760573
S205000C770077
S205000C78B3C3
S205000C7984F1
S205000C7AF480
S205000C7B0073
S205000C7C6F03
S205000C7D0071
S205000C7E80F0
S205000C7F0768
S205000C8083EB
S205000C812746
S205000C8284E8
S205000C83FC6F
S205000C840367
S205000C85C7A2
S205000C860761
S205000C870067
S205000C8893D3
S205000C89075E
S205000C8A3034
S205000C8B065D
S205000C8C63FF
S205000C8D144D
S205000C8EF769
S205000C8F0659
S205000C9083DB
S205000C912736
S205000C924418
S205000C93FC5F
S205000C941347
S205000C9587D2
S205000C964711
S205000C970057
S205000C982333
S205000C992233
S205000C9AE470
S205000C9BFC57
S205000C9C83CF
S205000C9DA7AA
S205000C9E0749
S205000C9F004F
S205000CA093BB
S205000CA1F756
S205000CA2F755
S205000CA30F3C
S205000CA42327
S205000CA50E3B
S205000CA6F454
S205000CA7FC4B
S205000CA8A3A3
S205000CA90E37
S205000CAA0440
S205000CABFC47
S205000CAC93AF
S205000CAD073A
S205000CAEC47C
S205000CAFFD42
S205000CB093AB
S205000CB186B7
S205000CB20933
S205000CB3003B
S205000CB41327
S205000CB50633
S205000CB6092F
S205000CB70037
S205000CB893A3
S205000CB985B0
S205000CBA072D
S205000CBB0033
S205000CBC032F
S205000CBD250C
S205000CBEC46C
S205000CBFFC33
S205000CC0EF3F
S205000CC1F03D
S205000CC21F0D
S205000CC3A289
S205000CC49397
S205000CC50722
S205000CC60523
S205000CC70027
S205000CC8B373
S205000CC984A1
S205000CCAF430
S205000CCB0023
S205000CCC6FB3
S205000CCD0021
S205000CCE80A0
S205000CCF021D
S205000CD0130B
S205000CD1001D
S205000CD2001C
S205000CD3001B
S205000CD46FAB
S205000CD50019
S205000CD68098
S205000CD70017
S205000CD81303
S205000CD90015
S205000CDA0014
S205000CDB0013
S205000CDC838F
S205000CDD27EA
S205000CDE848C
S205000CDFFC13
S205000CE0838B
S205000CE1C746
S205000CE20705
S205000CE3000B
S205000CE49377
S205000CE58584
S205000CE60701
S205000CE70007
S205000CE80303
S205000CE925E0
S205000CEAC440
S205000CEBFC07
S205000CECEF13
S205000CEDF011
S205000CEE5FA1
S205000CEF9867
S205000CF0936B
S205000CF18479
S205000CF214E8
S205000CF300FB
S205000CF48377
S205000CF527D2
S205000CF68474
S205000CF7FCFB
S205000CF89363
S205000CF9876E
S205000CFA17DD
S205000CFB00F3
S205000CFC23CF
S205000CFD24CD
S205000CFEF4FC
S205000CFFFCF3
S205000D00836A
S205000D0127C5
S205000D028467
S205000D03FCEE
S205000D048366
S205000D05C721
S205000D0607E0
S205000D0700E6
S205000D08E302
S205000D099054
S205000D0A07DC
S205000D0BD210
S205000D0C6F72
S205000D0D00E0
S205000D0E805F
S205000D0F00DE
S205000D1013CA
S205000D1100DC
S205000D1200DB
S205000D1300DA
S205000D148356
S205000D1527B1
S205000D16C413
S205000D17FCDA
S205000D186372
S205000D19884C
S205000D1A07CC
S205000D1B00D2
S205000D1C834E
S205000D1D27A9
S205000D1EC40B
S205000D1FFCD2
S205000D20834A
S205000D21A725
S205000D2207C4
S205000D2300CA
S205000D2423A6
S205000D258048
S205000D2607C0
S205000D2700C6
S205000D289332
S205000D29873D
S205000D2A04BF
S205000D2B00C2
S205000D2C13AE
S205000D2D853B
S205000D2E07B8
S205000D2F00BE
S205000D30833A
S205000D31209C
S205000D32C1FA
S205000D3303B7
S205000D3403B6
S205000D352494
S205000D368136
S205000D3703B3
S205000D388332
S205000D392490
S205000D3A4172
S205000D3B03AF
S205000D3C03AE
S205000D3D2987
S205000D3E01AE
S205000D3F03AB
S205000D40832A
S205000D412983
S205000D42C1EA
S205000D4302A8
S205000D441396
S205000D4501A7
S205000D4601A6
S205000D4704A2
S205000D48673E
S205000D498024
S205000D4A00A3
S205000D4B00A2
S205000D4C138E
S205000D4D019F
S205000D4E019E
S205000D4FFBA3
S205000D50237A
S205000D512676
S205000D52118A
S205000D530298
S205000D542376
S205000D552474
S205000D568116
S205000D570294
S205000D581382
S205000D590490
S205000D5A0192
S205000D5B038F
S205000D5C236E
S205000D5D2E62
S205000D5EA4EB
S205000D5FFC92
S205000D60236A
S205000D61226A
S205000D62B4D7
S205000D63008A
S205000D642366
S205000D652464
S205000D66C4C3
S205000D670086
S205000D682362
S205000D69265E
S205000D6AD4AF
S205000D6B0082
S205000D6C235E
S205000D6D2858
S205000D6EE49B
S205000D6F007E
S205000D70235A
S205000D712A52
S205000D72F487
S205000D73007A
S205000D742356
S205000D752C4C
S205000D760473
S205000D770175
S205000D782352
S205000D792E46
S205000D7A145F
S205000D7B0171
S205000D7C93DE
S205000D7D0769
S205000D7E046B
S205000D7F026C
S205000D8093DA
S205000D8187E5
S205000D824724
S205000D83FE6C
S205000D842346
S205000D852444
S205000D86F473
S205000D87FE68
S205000D8883E2
S205000D89273D
S205000D8A84DF
S205000D8BFE64
S205000D8C134E
S205000D8D86DA
S205000D8E0758
S205000D8F005E
S205000D9083DA
S205000D912537
S205000D92C497
S205000D93FD5D
S205000D941346
S205000D950553
S205000D960057
S205000D970056
S205000D98EF66
S205000D99F064
S205000D9A1F34
S205000D9BC68C
S205000D9C232E
S205000D9D262A
S205000D9EA4AB
S205000D9FFE50
S205000DA083CA
S205000DA12725
S205000DA2C487
S205000DA3FE4C
S205000DA41336
S205000DA585C3
S205000DA60740
S205000DA70046
S205000DA883C2
S205000DA92024
S205000DAAC182
S205000DAB0240
S205000DAC033E
S205000DAD241C
S205000DAE81BE
S205000DAF023C
S205000DB0132A
S205000DB1013B
S205000DB2013A
S205000DB30535
S205000DB467D2
S205000DB580B8
S205000DB60037
S205000DB70036
S205000DB81322
S205000DB90133
S205000DBA0132
S205000DBBFD35
S205000DBC230E
S205000DBD260A
S205000DBE81AE
S205000DBF022C
S205000DC0131A
S205000DC10428
S205000DC2012A
S205000DC30327
S205000DC42306
S205000DC52EFA
S205000DC6A483
S205000DC7FC2A
S205000DC82302
S205000DC92CF8
S205000DCAB46F
S205000DCBFC26
S205000DCCB76A
S205000DCD77A9
S205000DCE100F
S205000DCF1A04
S205000DD0839A
S205000DD1A775
S205000DD20714
S205000DD3001A
S205000DD423F6
S205000DD526F2
S205000DD6F423
S205000DD7FE18
S205000DD81302
S205000DD9070D
S205000DDA1003
S205000DDB0012
S205000DDC838E
S205000DDD27E9
S205000DDEC44B
S205000DDFFD11
S205000DE0B35A
S205000DE117F5
S205000DE2F714
S205000DE3000A
S205000DE413F6
S205000DE5C741
S205000DE6F710
S205000DE7FF07
S205000DE88382
S205000DE927DD
S205000DEAC43F
S205000DEBFE04
S205000DECB34E
S205000DED7789
S205000DEEF708
S205000DEF00FE
S205000DF023DA
S205000DF126D6
S205000DF2F407
S205000DF3FEFC
S205000DF403F6
S205000DF527D1
S205000DF68473
S205000DF7FDF9
S205000DF88372
S205000DF927CD
S205000DFAC42F
S205000DFBFDF5
S205000DFC33BE
S205000DFD17D9
S205000DFEF7F8
S205000DFF00EE
S205000E008369
S205000E0127C4
S205000E02C426
S205000E03FEEB
S205000E04B335
S205000E056780
S205000E06F7EF
S205000E0700E5
S205000E0823C1
S205000E0926BD
S205000E0AF4EE
S205000E0BFEE3
S205000E0CB729
S205000E0D7768
S205000E0E10CE
S205000E0F1AC3
S205000E1003D9
S205000E1127B4
S205000E12C416
S205000E13FEDB
S205000E1423B5
S205000E15A037
S205000E16E7EF
S205000E1700D5
S205000E1813C1
S205000E1900D3
S205000E1A00D2
S205000E1B00D1
S205000E1C03CD
S205000E1D24AB
S205000E1EC10D
S205000E1F02CB
S205000E2013B9
S205000E2101CA
S205000E2201C9
S205000E2303C6
S205000E246761
S205000E258047
S205000E2600C6
S205000E2700C5
S205000E2813B1
S205000E2901C2
S205000E2A01C1
S205000E2BFDC4
S205000E2C239D
S205000E2D2699
S205000E2E813D
S205000E2F02BB
S205000E3013A9
S205000E3104B7
S205000E3201B9
S205000E3303B6
S205000E342395
S205000E352E89
S205000E36A412
S205000E37FCB9
S205000E382391
S205000E392C87
S205000E3AB4FE
S205000E3BFCB5
S205000E3CB7F9
S205000E3D1798
S205000E3E109E
S205000E3F1A93
S205000E408329
S205000E41A704
S205000E4207A3
S205000E4300A9
S205000E442385
S205000E452681
S205000E46F4B2
S205000E47FEA7
S205000E488321
S205000E49277C
S205000E4A841E
S205000E4BFDA4
S205000E4C633D
S205000E4D920D
S205000E4E0797
S205000E4F029B
S205000E501389
S205000E510794
S205000E52108A
S205000E530099
S205000E548315
S205000E552770
S205000E56C4D2
S205000E57FD98
S205000E58B3E1
S205000E59177C
S205000E5AF79B
S205000E5B0091
S205000E5C137D
S205000E5DC7C8
S205000E5EF797
S205000E5FFF8E
S205000E608309
S205000E612764
S205000E62C4C6
S205000E63FE8B
S205000E64B3D5
S205000E657710
S205000E66F78F
S205000E670085
S205000E682361
S205000E69265D
S205000E6AF48E
S205000E6BFE83
S205000E6C6F11
S205000E6D007F
S205000E6EC0BE
S205000E6F017C
S205000E701369
S205000E710774
S205000E72106A
S205000E730079
S205000E7483F5
S205000E752750
S205000E76C4B2
S205000E77FD78
S205000E783341
S205000E79175C
S205000E7AF77B
S205000E7B0071
S205000E7C83ED
S205000E7D2748
S205000E7EC4AA
S205000E7FFE6F
S205000E80B3B9
S205000E816704
S205000E82F773
S205000E830069
S205000E842345
S205000E852641
S205000E86F472
S205000E87FE67
S205000E88B7AD
S205000E89174C
S205000E8A1052
S205000E8B1A47
S205000E8C035D
S205000E8D2738
S205000E8EC49A
S205000E8FFE5F
S205000E902339
S205000E91A0BB
S205000E92E773
S205000E930059
S205000E941345
S205000E950057
S205000E960056
S205000E970055
S205000E980351
S205000E99242F
S205000E9AC191
S205000E9B024F
S205000E9C133D
S205000E9D014E
S205000E9E014D
S205000E9F034A
S205000EA067E5
S205000EA180CB
S205000EA2004A
S205000EA30049
S205000EA41335
S205000EA50146
S205000EA60145
S205000EA7FD48
S205000EA82321
S205000EA9261D
S205000EAA81C1
S205000EAB023F
S205000EAC132D
S205000EAD043B
S205000EAE013D
S205000EAF033A
S205000EB02319
S205000EB12E0D
S205000EB2A496
S205000EB3FC3D
S205000EB42315
S205000EB52C0B
S205000EB6B482
S205000EB7FC39
S205000EB8B77D
S205000EB9171C
S205000EBA1022
S205000EBB1A17
S205000EBC939D
S205000EBD87A8
S205000EBE87A7
S205000EBF002D
S205000EC083A9
S205000EC1A784
S205000EC20723
S205000EC30029
S205000EC42305
S205000EC52601
S205000EC6F432
S205000EC7FE27
S205000EC883A1
S205000EC927FC
S205000ECA849E
S205000ECBFD24
S205000ECC63BD
S205000ECD928D
S205000ECE0717
S205000ECF021B
S205000ED01309
S205000ED10714
S205000ED2100A
S205000ED30019
S205000ED48395
S205000ED527F0
S205000ED6C452
S205000ED7FD18
S205000ED8B361
S205000ED917FC
S205000EDAF71B
S205000EDB0011
S205000EDC13FD
S205000EDDC748
S205000EDEF717
S205000EDFFF0E
S205000EE08389
S205000EE127E4
S205000EE2C446
S205000EE3FE0B
S205000EE4B355
S205000EE57790
S205000EE6F70F
S205000EE70005
S205000EE823E1
S205000EE926DD
S205000EEAF40E
S205000EEBFE03
S205000EEC6F91
S205000EED00FF
S205000EEEC03E
S205000EEF01FC
S205000EF013E9
S205000EF107F4
S205000EF210EA
S205000EF300F9
S205000EF48375
S205000EF527D0
S205000EF6C432
S205000EF7FDF8
S205000EF833C1
S205000EF917DC
S205000EFAF7FB
S205000EFB00F1
S205000EFC836D
S205000EFD27C8
S205000EFEC42A
S205000EFFFEEF
S205000F00B338
S205000F016783
S205000F02F7F2
S205000F0300E8
S205000F0423C4
S205000F0526C0
S205000F06F4F1
S205000F07FEE6
S205000F08B72C
S205000F0917CB
S205000F0A10D1
S205000F0B1AC6
S205000F0C934C
S205000F0D8757
S205000F0E8756
S205000F0F00DC
S205000F1003D8
S205000F1127B3
S205000F12C415
S205000F13FEDA
S205000F1423B4
S205000F15A036
S205000F16E7EE
S205000F1700D4
S205000F1813C0
S205000F1900D2
S205000F1A00D1
S205000F1B00D0
S205000F1C03CC
S205000F1D24AA
S205000F1EC10C
S205000F1F02CA
S205000F2013B8
S205000F2101C9
S205000F2201C8
S205000F2303C5
S205000F246760
S205000F258046
S205000F2600C5
S205000F2700C4
S205000F2813B0
S205000F2901C1
S205000F2A01C0
S205000F2BFFC1
S205000F2C239C
S205000F2D2698
S205000F2E813C
S205000F2F00BC
S205000F3013A8
S205000F3104B6
S205000F3201B8
S205000F3301B7
S205000F346F48
S205000F3500B6
S205000F3600B5
S205000F3700B4
S205000F3813A0
S205000F3901B1
S205000F3A01B0
S205000F3BFFB1
S205000F3C238C
S205000F3D2688
S205000F3E812C
S205000F3F00AC
S205000F401398
S205000F4104A6
S205000F4201A8
S205000F4301A7
S205000F446F38
S205000F4500A6
S205000F4600A5
S205000F4700A4
S205000F481390
S205000F4901A1
S205000F4A01A0
S205000F4BFFA1
S205000F4C237C
S205000F4D2678
S205000F4E811C
S205000F4F009C
S205000F501388
S205000F510496
S205000F520198
S205000F530197
S205000F546F28
S205000F550096
S205000F560095
S205000F570094
S205000F581380
S205000F590191
S205000F5A0190
S205000F5BFF91
S205000F5C236C
S205000F5D2668
S205000F5E810C
S205000F5F008C
S205000F601378
S205000F610486
S205000F620188
S205000F630187
S205000F646F18
S205000F650086
S205000F660085
S205000F670084
S205000F681370
S205000F690181
S205000F6A0180
S205000F6BFF81
S205000F6C235C
S205000F6D2658
S205000F6E81FC
S205000F6F007C
S205000F701368
S205000F710476
S205000F720178
S205000F730177
S205000F746F08
S205000F750076
S205000F760075
S205000F770074
S205000F781360
S205000F790171
S205000F7A0170
S205000F7BFF71
S205000F7C234C
S205000F7D2648
S205000F7E81EC
S205000F7F006C
S205000F801358
S205000F810466
S205000F820168
S205000F830167
S205000F846FF8
S205000F850066
S205000F860065
S205000F870064
S205000F881350
S205000F890161
S205000F8A0160
S205000F8BFF61
S205000F8C233C
S205000F8D2638
S205000F8E81DC
S205000F8F005C
S205000F901348
S205000F910456
S205000F920158
S205000F930157
S205000F946FE8
S205000F950056
S205000F960055
S205000F970054
S205000F981340
S205000F990151
S205000F9A0150
S205000F9BFF51
S205000F9C232C
S205000F9D2628
S205000F9E81CC
S205000F9F004C
S205000FA01338
S205000FA10446
S205000FA20148
S205000FA30147
S205000FA46FD8
S205000FA50046
S205000FA60045
S205000FA70044
S205000FA81330
S205000FA90141
S205000FAA0140
S205000FABFF41
S205000FAC231C
S205000FAD2618
S205000FAE81BC
S205000FAF003C
S205000FB01328
S205000FB10436
S205000FB20138
S205000FB30137
S205000FB46FC8
S205000FB50036
S205000FB60035
S205000FB70034
S205000FB81320
S205000FB90131
S205000FBA0130
S205000FBBFE32
S205000FBC230C
S205000FBD2E00
S205000FBE81AC
S205000FBF002C
S205000FC01318
S205000FC10426
S205000FC20128
S205000FC30226
S205000FC42304
S205000FC52600
S205000FC6A481
S205000FC7FE26
S205000FC89390
S205000FC9879B
S205000FCA051C
S205000FCB0020
S205000FCC23FC
S205000FCD1509
S205000FCEF429
S205000FCFFE1E
S205000FD0B764
S205000FD177A3
S205000FD21009
S205000FD31AFE
S205000FD49384
S205000FD5878F
S205000FD647CE
S205000FD70014
S205000FD80310
S205000FD9A76B
S205000FDA070A
S205000FDB0010
S205000FDCB758
S205000FDD7797
S205000FDE10FD
S205000FDF1AF2
S205000FE09378
S205000FE18783
S205000FE247C2
S205000FE30008
S205000FE413F4
S205000FE5679F
S205000FE627DE
S205000FE70004
S205000FE823E0
S205000FE9A062
S205000FEAE71A
S205000FEB0000
S205000FECB748
S205000FED07F7
S205000FEE10ED
S205000FEF1AE2
S205000FF09368
S205000FF18773
S205000FF2C732
S205000FF300F8
S205000FF413E4
S205000FF507EF
S205000FF630C5
S205000FF708EC
S205000FF823D0
S205000FF9A052
S205000FFAE70A
S205000FFB00F0
S205000FFC836C
S205000FFD5797
S205000FFEA449
S205000FFFFEEE
S2050010009357
S205001001D712
S2050010028761
S20500100300E7
S2050010049353
S205001005974E
S20500100607DD
S20500100701E2
S205001008934F
S205001009D70A
S20500100A07D9
S20500100B01DE
S20500100C13CB
S20500100D8756
S20500100E07D5
S20500100F00DB
S205001010B723
S20500101107D2
S20500101210C8
S2050010131ABD
S2050010149343
S205001015874E
S205001016478D
S20500101700D3
S20500101813BF
S205001019775A
S20500101AF7D9
S20500101B0FC0
S20500101C23AB
S20500101DA02D
S20500101EE7E5
S20500101F00CB
S20500102003C7
S2050010215772
S205001022A424
S205001023FEC9
S205001024B70F
S20500102507BE
S20500102610B4
S2050010271AA9
S20500102813AF
S205001029774A
S20500102AF7C9
S20500102B0FB0
S20500102C239B
S20500102DA01D
S20500102EE7D5
S20500102F00BB
S205001030B703
S20500103107B2
S20500103210A8
S2050010331A9D
S2050010349323
S205001035872E
S205001036872D
S20500103700B3
S205001038139F
S20500103907AA
S20500103A7040
S20500103B0AA5
S20500103C238B
S20500103DA00D
S20500103EE7C5
S20500103F00AB
S205001040B7F3
S20500104107A2
S2050010421098
S2050010431A8D
S2050010449313
S205001045871E
S205001046C7DD
S20500104700A3
S205001048138F
S205001049079A
S20500104A3070
S20500104B009F
S20500104C237B
S20500104DA0FD
S20500104EE7B5
S20500104F009B
S205001050B7E3
S2050010510792
S2050010521088
S2050010531A7D
S2050010549303
S205001055870E
S205001056474D
S2050010570093
S205001058830F
S205001059A7EA
S20500105A0789
S20500105B008F
S20500105C137B
S20500105DF796
S20500105E0785
S20500105F0F7C
S205001060B7D3
S2050010610782
S2050010621078
S2050010631A6D
S20500106493F3
S20500106587FE
S205001066473D
S2050010670083
S205001068136F
S205001069671A
S20500106A2759
S20500106B007F
S20500106C235B
S20500106DA0DD
S20500106EE795
S20500106F007B
S2050010701367
S2050010710079
S2050010720078
S2050010730077
S2050010740373
S2050010752451
S205001076C1B3
S2050010770172
S205001078135F
S2050010790170
S20500107A016F
S20500107B026D
S20500107C6707
S20500107D80ED
S20500107E006C
S20500107F006B
S2050010801357
S2050010810168
S2050010820167
S205001083FE69
S2050010842343
S2050010852E37
S20500108681E3
S2050010870063
S205001088134F
S205001089045D
S20500108A015F
S20500108B025D
S20500108C93CB
S20500108D0756
S20500108E0557
S20500108F005B
S205001090A3B7
S2050010910752
S205001092F464
S205001093FE59
S2050010941343
S2050010950055
S2050010960054
S2050010970053
S205001098B79B
S205001099074A
S20500109A1040
S20500109B1A35
S20500109C93BB
S20500109D87C6
S20500109E4705
S20500109F014A
S2050010A083C7
S2050010A1A7A2
S2050010A20741
S2050010A30047
S2050010A493B3
S2050010A5F74E
S2050010A6073D
S2050010A70241
